S00D00005669726B302E737265634B
S113000019C028C027C043C025C024C026C022C0B0
S113001021C020C01FC01EC01DC01CC01BC01AC0F0
S113002019C018C017C016C015C014C013C012C020
S113003011C010C011241FBECFEFCDBFDFE3DEBF60
S11300402EE3A0E0BEE301C01D92A030B207E1F7A9
S11300503AD093C0D5CF75D008951F920F920FB6A2
S11300600F9211248F93EF93FF93E0E5F0E08081EA
S11300708E7F808381E08093270480934301FF91E6
S1130080EF918F910F900FBE0F901F9018951F92B4
S11300900F920FB60F9211248F93EF93FF938091D9
S11300A0080485FD05C0E0E5F0E080818E7F808353
S11300B080E280930904FF91EF918F910F900FBE1E
S11300C00F901F901895C7DFE0E5F0E08081897FED
S11300D08260808324E588E594E12150804090404B
S11300E0E1F700C000C080818160808380818160ED
S11300F08083889580818E7F8083ECCF80E0089513
S113010080E00895789480E00895E0E1F4E080814F
S113011088608193E83184E0F807C9F7E0E3F4E00C
S1130120808188608193E83384E0F807C9F7E0E5CB
S1130130F4E0808188608193E83584E0F807C9F7AA
S11301400895E3DF209A2898DBDF04D0DBDF10D0AA
S1130150D5DF0895E0E4F1E081818111FDCFE0E491
S1130160F1E081E88083178281E0828380E0089552
S111017083E08093500080E00895F894FFCF60
S9030000FC
